:020000020000FC
:1000000001C027C00FE90DBF09E007BBC09802E09F
:1000100005BF00E40BBF00E40ABF06E806B900E034
:1000200003B902E207B904E104BBB199FECF206035
:1000300020FDFECF789401E207B9369A3699FECFBB
:10004000789405B106BF702F03E80FBD04E003BF2D
:10005000ECCF1F931FB7C39B02C0C39903C0C39AC1
:100060001AC016C0C39803E80FBD04E003BFCFEF6A
:10007000C6BF00E00FBD00E003BFF89404E104BB7D
:10008000C098206033D005E104BB09E007BBC098ED
:100090001FBF1F91189503E80FBD04E003BF0027A1
:1000A00006BF02E207B9369A3699FECF65B1789459
:1000B000362F2F7F4DE75FEF5A95F1F70DD04A9518
:1000C000D1F73A95B9F7002706BF00E00FBD00E071
:1000D00003BFC398C098089501E207B9369A3699CC
:1000E000FECF789405B106BF702F08950000000080
:1000F0000000000000000000000000000000000000
:1001000000000000000000000000000000000000EF
:1001100000000000000000000000000000000000DF
:1001200000000000000000000000000000000000CF
:1001300000000000000000000000000000000000BF
:1001400000000000000000000000000000000000AF
:1001500000000000089589E19FEF9A95F1F78A95D4
:08016000D9F77A95C1F7089563
:00000001FF
