:020000020000FC
:1000000001C068C00FE90DBF09E007BBC09802E05E
:1000100005BF00E40BBF00E40ABF06E806B900E034
:1000200003B902E207B904E104BB789401E207B91D
:10003000369A3699FECF789405B106BFB49B02C0BC
:10004000B49905C003E80FBD03E003BFEFCF00E0A4
:100050000FBD00E003BFEACF85E09FE09A95F1F77E
:100060008A95D9F77A95C1F708950000000000003D
:100070000000000000000000000000000000000080
:100080000000000000000000000000000000000070
:100090000000000000000000000000000000000060
:1000A0000000000000000000000000000000000050
:1000B0000000000000000000000000000000000040
:1000C0000000000000000000000000000000000030
:1000D000000008951F931FB7BFDFC39B02C0C399E1
:1000E00006C0C39A03E80FBD03E003BF07C0C3986F
:1000F000002706BF00E00FBD00E003BF1FBF1F9138
:02010000189550
:00000001FF
